:100000000C94D1070C94F9070C94F9070C94F90798
:100010000C94BA2A0C94F9070C94F9070C948028D4
:100020000C94F9070C94F9070C94F9070C949D2A89
:100030000C94F9070C94F9070C94F9070C94F90740
:100040000C9434290C94F9070C9402290C94DC28A4
:100050000C94F9070C94F9070C94F9070C94F90720
:100060000C947E290C94F90700000D121102EF1E6A
:10007000000D121102EF3C000D121102EF5A000D9B
:10008000121102EF78000D121102EF96000D1211FD
:1000900002EFB4000D121102EFD2000D121102EFA7
:1000A000F0000D121102EF0E010D121102EF2C01E2
:1000B0000D121102EF4A010D121102EF680100004A
:1000C000070001680103110803F06F0109070B0124
:1000D000EF77010D120D00F095010C150D01EFB534
:1000E0000114111501F0E00110121101F0040204D5
:1000F000070601EF080206170801EF1A02061708A3
:1001000001EF2C0208080901EF34020C0B0E01F676
:10011000450203080702FD480206030801F94B02E5
:1001200003040702FD4D0207110700F05C020B12E9
:100130000D01F0750207110D02F084020B110D0183
:10014000F09C020B120D01F0B5020C110D01F0CF65
:10015000020B120D01F0E8020B120D01F001030C6D
:10016000110D01F01B030C120D01F036030B120DE3
:1001700001F04F03030C0803F5540303100803F5C3
:100180005A030C0B0E01F66B030C090E01F77903F1
:100190000C0B0E01F68A030B120F02EFA3031615C8
:1001A0001701EFDD0310121101EF01040E1211020D
:1001B000EF21040F131101EF45040E121102EF6538
:1001C000040D121002EF83040C120F02EF9E0410B4
:1001D000121301EFC2040E121102EFE20403120720
:1001E00002EFE9040B130D01EF04050F121102EFEA
:1001F00026050C120F02EF410511121402EF6805DB
:100200000E121102EF880511131301EFB1050D1243
:100210001002EFCF0511131301EFF8050E121102B2
:10022000EF18060E131001EF3A060E120F00EF5AE8
:10023000060E131102EF7C060F121001EF9E061638
:10024000121700EFD0060F121001EFF2060F121076
:1002500001EF14070D120F01EF320705170802EF27
:10026000410707110700F0500706170800EF620763
:100270000C0B0E01F073070F020DFF047707050347
:100280000800EF79070C0E0D01F48E070D130F0116
:10029000EFAD070C0E0D01F4C2070C130F01EFDFD9
:1002A000070C0E0D01F4F40708120800EF06080C05
:1002B000120F01F421080B120F02EF3A0803120784
:1002C00002EF410805170700EF50080C120D01EF6F
:1002D0006B0803120702EF7208130D1501F4910861
:1002E0000B0D0F02F4A3080D0E0F01F4BA080D1246
:1002F0000F01F4D8080C120F01F4F308070D0902DE
:10030000F4FF080B0E0D01F4130907110800F12288
:10031000090C0E0F01F437090D0D0D00F44D0912F3
:100320000D1300F46B090D0D0D00F481090D120D74
:1003300000F49F090A0D0C01F4B00907170901EF39
:10034000C50902170702EFCB0906170902EFDD09FD
:100350000B050E01F9E4090D121102EFFFFFFFFF7B
:10036000FFC07E03F01F80FC07E03F01F80FC07E56
:1003700003F01F80FC07FFFFFFC0FFFFFFFFFFC070
:100380007E03F01F80FC07E03F01F80FC07E03F002
:100390001F80FC07FFFFFFC0FFFFFFFFFFC07E03C2
:1003A000F01F80FC07E03F01F80FC07E03F01F80C4
:1003B000FC07FFFFFFC0FFFFFFFFFFC07E03F01F32
:1003C00080FC07E03F01F80FC07E03F01F80FC07B0
:1003D000FFFFFFC0FFFFFFFFFFC07E03F01F80FC99
:1003E00007E03F01F80FC07E03F01F80FC07FFFF0E
:1003F000FFC0FFFFFFFFFFC07E03F01F80FC07E090
:100400003F01F80FC07E03F01F80FC07FFFFFFC015
:10041000FFFFFFFFFFC07E03F01F80FC07E03F01EE
:10042000F80FC07E03F01F80FC07FFFFFFC0FFFF37
:10043000FFFFFFC07E03F01F80FC07E03F01F80FC5
:10044000C07E03F01F80FC07FFFFFFC0FFFFFFFF20
:10045000FFC07E03F01F80FC07E03F01F80FC07E65
:1004600003F01F80FC07FFFFFFC0FFFFFFFFFFC07F
:100470007E03F01F80FC07E03F01F80FC07E03F011
:100480001F80FC07FFFFFFC0FFFFFFFFFFC07E03D1
:10049000F01F80FC07E03F01F80FC07E03F01F80D3
:1004A000FC07FFFFFFC0FFFFFFFFFFC07E03F01F41
:1004B00080FC07E03F01F80FC07E03F01F80FC07BF
:1004C000FFFFFFC0FFFFFFFF21FFE0F3F9FCFE7E0F
:1004D0003B1D840E7073839C18C7FFBFFDFFE39C18
:1004E00018C0C60E7DFFEFFF18C0C60E7073839C48
:1004F000000401F87FCFDEE4EE4EE40F407E03FC03
:100500000FE05E04FE4FE4FF4E7FE3FC0400400476
:10051000003C0607E060FF0C0C3080C3180C310073
:10052000FF3007E6003C60000C7C00CFE019C601FC
:1005300098703187031C6060FE0407C00F801FC0E5
:100540003DE038E03CE01DC01FC00F003F8C7BDC6D
:1005500071DCF1FCF0F8F07879FC7FFC3F9E000044
:10056000FFFFE6600C718E31C738E38E38E38E38BA
:1005700071C70E3870C0C3861C70E38E1C71C71C17
:1005800071CE38E71C638C00101010FE7C386C4470
:10059000060060060060FFFFFFFFF06006006006D7
:1005A00000FFF2FEFFFFC0FFF00408306083060882
:1005B0001060C1060C1020C03F8FF9EF78FE0FC10C
:1005C000F83F07E0FC1F83F07E0FE3DEF3FE3F8081
:1005D00080061C7FFFE1C3870E1C3870E1C3870EC5
:1005E0003F8FFBEFF87E0FC1C0380F03C0F07C1FB8
:1005F0000780E03FFFFFFFE03F8FFBCFF0FE1E03D1
:10060000C0707C0FC0FC03807E0FC1FCFBFE3F80EE
:100610008007C07C0FC0FC1FC3BC33C73C63CE3C0B
:10062000FFFFFFFFF03C03C03C03C03FEFFDFFB8FE
:100630000600C01FE7FEF1E01C0380700FC1FCFB49
:10064000FE3F80801F87F9E7B87E01C03BE7FEFBD5
:10065000FE1F83F07E0FE1DEFBFE3F8080FFFFFF89
:10066000FFF00E01C03C0380700F00E00E01E01CA3
:1006700001C01C03C03C003F87FCF9EE0EE0EE0E0B
:1006800071C3F87FCF1EE0EE0FE0FE0EF1E7FC3FF6
:1006900080403F0FFBEF70FE0FC1F83F0FF3EFFC00
:1006A000FB80700FC3FEF3FE3F8080FF8000FFF0F1
:1006B000FF8000FFF2DE00701F0FE7F0F80E00FC75
:1006C00003F80FE01F0030FFFFFFFFF00000000005
:1006D000FFFFFFFFF0C00F807F00FC03F00703F176
:1006E000FCFE0F80C0001F0FF3FF78FE0FC1C03863
:1006F0000F03E0F83C0700E0000380700E01C0002B
:10070000FC000FFE00F03C070038380030C000E667
:100710000FF19873C7C3870F0C1C3C3061F1C18681
:10072000C70E1B1C38EC3BEF38FDF870C180E000B1
:1007300001C01003FFC003FF0003C007C007E007AC
:10074000E00FE00EF00EF01E701C781C783C383F75
:10075000FC3FFC7FFC701EF01EF00EE00FFF03FF5D
:10076000CFFFBC7EF03BC0EF03BFFEFFE3FFCF0F28
:10077000BC0FF01FC0FF03FFFEFFFBFF8003C01F85
:10078000F0FFF1F1E781EF01FC007800F001E003F8
:10079000C007800F00EF01DE079FFE1FFC1FE00473
:1007A00000FE03FF8FFF387EE07B80FE03F807E04A
:1007B0001F807E01F807E03F80FE07BFFEFFF3FFCA
:1007C00000FFFFFFFFFFE00F007803C01FFEFFF7F1
:1007D000FFBC01E00F007803C01FFFFFFFFFC0FF59
:1007E000FFFFFFFE00E00E00E00FFEFFEFFEE00E59
:1007F00000E00E00E00E00E00E0003E00FF81FFC2A
:100800003E3E780F700FF000F000F000F07FF07FB8
:10081000F07FF007780F7C1F3FFF1FFB0FF3E03FD7
:1008200080FE03F80FE03F80FE03FFFFFFFFFFFEA7
:1008300003F80FE03F80FE03F80FE03F80F0FFFF7A
:10084000FFFFFFFFFC01E03C0780F01E03C0780FB4
:1008500001E03C0780FE1FC3F87FFEFFCFF00000E1
:10086000E03DC0FB83E7078E1E1C7839E07780FFF0
:1008700001FF03FE079E0E1E1C1E383C703CE03D2F
:10088000C03CF00F00F00F00F00F00F00F00F00F71
:1008900000F00F00F00F00F00FFFFFFFFFF81FFC4C
:1008A0000FFE07FF83FFC3FFE1FFB0FFDC6FEE77B2
:1008B000F73BF99DFCCCFE767F3F3F8F9FC7CFE390
:1008C000C7F1E3C0E03FC0FF03FE0FFC3FF0FEE3D3
:1008D000FB8FE73F9EFE3BF8FFE1FF83FE0FF81F13
:1008E000E07F80F003E007FC07FF07CFC781F3C07C
:1008F0007BC01DE00FF007F803FC01FE00FF007352
:10090000C079F07C7FFC1FFC07FC002000FF07FF84
:100910003FFDC3FE07F01F80FC0FE0FFFFBFF9FFA4
:100920000E007003801C00E007000003E007FC07D6
:10093000FF07CFC780F3C07BC01FE00FF007F803AD
:10094000FC01FE04FF0773C3F9F0FC7FFC1FFF07E7
:10095000FFC020C0FF83FFCFFFBC3FF03FC0FF03BD
:10096000FC0FFFFBFF8FFFBC1EF03BC0EF03BC0E74
:10097000F03FC0F00F80FFC7FFBE1EF03BC0FF007E
:100980003F807FE0FFE03FC00F001F807F03FF1F1D
:100990007FF8FFC00000FFFFFFFFFFFFE003800EB6
:1009A000003800E003800E003800E003800E0038BD
:1009B00000E003800E00E03F80FE03F80FE03F8080
:1009C000FE03F80FE03F80FE03F80FE03FC0FF0793
:1009D0009FFE7FF07F802000E01FC03BC0F381E7D7
:1009E000038F0F0E1C1C383C7039C07380E700FC6D
:1009F00001F803F003C007800F00F0381DC1E0F7D5
:100A000087C3DE1F0F787C38E3B0E38EC78F3B9C33
:100A10001CEE707339C1DC670771B80FC7E03E1F69
:100A200080F83E01E0F00783C01E0F00F03DF07932
:100A3000E1E1E3C3CF03FC07F807E007800F003FC5
:100A4000007F01FE079E0F3C3C3CF83DE078F01F24
:100A5000E079E0F3C3C3C7879E073C0F700FE01F28
:100A6000801F003C007800F001E003C007800F0009
:100A7000FFFFFFFFFFFFF00F00F00F807807807887
:100A800007807C03C03C03C01FFFFFFFFFC0FFFFC8
:100A9000CE739CE739CE739CE739CFFFE0C181026A
:100AA00006040818302060C081830206FFFFC71CBF
:100AB00071C71C71C71C71C71C71C7FFFFC00F0035
:100AC000F00F01F81B839C39C30C70E70EE070FF38
:100AD000FFFFFC71863F87FCFFEE1E01E0FE7FEF0B
:100AE0008EE1EE1EF3EFFE7EE100F007803C01E0B8
:100AF0000F007BE3FF9FFEF8F783FC1FE0FF07F882
:100B00003FC1DF9EFFE7FE00401F83FC7FEF0EE04A
:100B1000EE00E00E00E00F0E79E7FC3F8000007071
:100B2000070070070071E73FF7FFF0FE0FE07E0758
:100B3000E07E0FF0F79F7FF3F700001F07FC7BEECE
:100B40000EE0EFFEFFFFFFE00E0EF1E7FC3F8040FE
:100B5000001E3E3C3CFFFFFF3C3C3C3C3C3C3C3CE4
:100B60003C3C1E73F77FFF0FF0FE07E07E07E07F3F
:100B70000F79F7FF3F7007007F0F7FE3FCE01C0356
:100B800080700E01DF3FF7FFF1FC1F83F07E0FC185
:100B9000F83F07E0FC1CFFF1FFFFFFFFFC39CE70C0
:100BA0001CE739CE739CE739CE7FFFC0F00F00F011
:100BB0000F00F00F0EF1EF3CF78FF0FF0FF0FF8FFB
:100BC0003CF3CF1EF1EF0FFFFFFFFFFFFFFCF7CF5E
:100BD0009FFFFBFFFFF878FF0E1FE1C3FC387F8704
:100BE0000FF0E1FE1C3FC387F870FF0E1EEF9FFB66
:100BF000FFF8FE0FC1F83F07E0FC1F83F07E0E1FD9
:100C000081FF1FFDE1EF07703F81FC0FE07F839EB6
:100C10003CFFC3FC0100F7C7FF3FFDF1EF07F83FC2
:100C2000C1FE0FF07F83BE3DFFCF7C7883C01E00E6
:100C3000F00780001E77F77FFF0FE0FE07E07E07DA
:100C4000E0FF0FF9F7FF3F7047007007007007EFF4
:100C5000FFFF8E1C3870E1C3870E003F8FFBEFF85B
:100C60007F01FE1FF0FF01FC1FC3FFF7FC080038E7
:100C700070E7FFFFCE1C3870E1C3870F8F04F07F51
:100C800007F07F07F07F07F07F07F07F0F79F7FF0E
:100C90003F7080F07B839E1C71E38E1E707383B85F
:100CA0001DC07E03E01F007800F0E1DC78771F3D77
:100CB000C7CE79F38EECE3BB78ECFC1F3F07CFC1C6
:100CC000F1E07C780E1E0078F3C78F783B81FC073B
:100CD000C01E01F01FC0EF0F78F1E78780F07B8323
:100CE0009E1CF1E38E1E707383B81DC07E03E01F4F
:100CF000007803801C01E03E01E000FFFFFFFC1EC6
:100D00000F83C1E0F0783C0FFFFFFFC0063CF9C342
:100D1000870E1C3873C70F070E1C3870E1C3E7C776
:100D200080FFFFFFFFFFFCC3CF0C38E38E38E3C723
:100D30003CE38E38E38EF3CE00100F85BDE1F00862
:100D4000FFFFFFFFFFC07E03F01F80FC07E03F01B5
:100D5000F80FC07E03F01F80FC07FFFFFFC00000FC
:100D600028003C003200CF02CF02400028003C00A7
:100D700032002F032F03800028003C0032002202A3
:100D80002202C00028003C0032005E015E0100012A
:100D900028003C003200E701090200006E003C0020
:100DA00032003103310340006E003C0032001F026C
:100DB0001F0280006E003C00320046034603C00064
:100DC0006E003C0032002802280200016E003C0048
:100DD0003200330335030000B4003C0032001C0233
:100DE0001C024000B4003C0032003703370380008F
:100DF000B4003C00320039033903C000B4003C00A9
:100E000032005E015E010001B4003C003200E401EA
:100E1000E5010000000000000000000000000000EC
:100E200000000000000000000000000000000000C2
:100E300000000000000000000000000000000000B2
:100E400000000000000000000000000000000000A2
:100E50000000230026002900000000080002010015
:100E60000003040700000000000000000000000074
:100E7000240027002A005C036800147F2100000280
:100E8000009F0024005F016201A00002009F002477
:100E9000006D01090200002A003C00240058013BBB
:100EA0000340002A003C0024003D03410380002A47
:100EB000003C00240080012C02C0002A003C0024D9
:100EC000007C01410300012A003C0024008301430F
:100ED0000300006A003C0024000B02450340006A46
:100EE000003C0024000F02370380006A003C00240D
:100EF000000C024603C0006A003C002400120231CC
:100F00000300016A003C0024001502220200009741
:100F1000003C00240018022F03400097003C0024EE
:100F2000001B021C02800097003C0024001E021FD0
:100F300002C00097003C0024002402350300019702
:100F4000003C0024002702CF020000C8003C00241F
:100F5000002A0281018000C8003C00240041025A9E
:100F60000100000000000000000000000001020479
:100F7000081020408001020408102001020408101B
:100F80002000000000250028002B000404040404B5
:100F90000404040202020202020303030303030225
:100FA000392B11241FBECFEFD8E0DEBFCDBF13E039
:100FB000A0E0B1E0ECEAFBE602C005900D92A83497
:100FC000B107D9F725E0A8E4B3E001C01D92A23A29
:100FD000B207E1F717E0C1EDD7E004C02197FE01A9
:100FE0000E948935C03DD107C9F70E94722B0C942D
:100FF000D4350C940000CF93DF93C8E8D4E0A881E7
:10100000B9818091260190912701A81BB90B2AE094
:1010100030E00E9463352091240130912501032E98
:10102000000C440B550B0E942D3539832883AA816F
:10103000BB818091220190912301A81BB90B2AE06A
:1010400030E00E9463352091200130912101032E70
:10105000000C440B550B0E942D353B832A83DF91F6
:10106000CF910895AF92BF92CF92DF92EF92FF920D
:101070000F931F93CF93DF936C017B018B01040FC0
:10108000151FEB015E01AE18BF08C017D10759F05C
:101090006991D601ED91FC910190F081E02DC6019E
:1010A0000995892B79F7C501DF91CF911F910F9198
:1010B000FF90EF90DF90CF90BF90AF900895FC012C
:1010C000538D448D252F30E0842F90E0821B930BAD
:1010D000541710F0CF96089501970895FC01918D53
:1010E000828D981761F0A28DAE0FBF2FB11D5D9656
:1010F0008C91928D9F5F9F73928F90E008958FEFF8
:101100009FEF0895FC01918D828D981731F0828DAB
:10111000E80FF11D858D90E008958FEF9FEF089502
:10112000FC01918D228D892F90E0805C9F4F821B66
:1011300091098F739927089589EF94E00E94900890
:1011400021E0892B09F420E0822F089580E090E0CF
:10115000892B29F00E949C0881110C9400000895AD
:10116000FC01A48DA80FB92FB11DA35ABF4F2C911C
:10117000848D90E001968F739927848FA689B78913
:101180002C93A089B1898C91837080648C93938D0A
:10119000848D981306C00288F389E02D80818F7DAD
:1011A00080830895EF92FF920F931F93CF93DF9365
:1011B000EC0181E0888F9B8D8C8D98131AC0E88993
:1011C000F989808185FF15C09FB7F894EE89FF8962
:1011D0006083E889F98980818370806480839FBF00
:1011E00081E090E0DF91CF911F910F91FF90EF9000
:1011F0000895F62E0B8D10E00F5F1F4F0F73112710
:10120000E02E8C8D8E110CC00FB607FCFACFE8894A
:10121000F989808185FFF5CFCE010E94B008F1CF1A
:10122000EB8DEC0FFD2FF11DE35AFF4FF0829FB7BE
:10123000F8940B8FEA89FB8980818062CFCFCF93AE
:10124000DF93EC01888D8823B9F0AA89BB89E889EE
:10125000F9898C9185FD03C0808186FD0DC00FB694
:1012600007FCF7CF8C9185FFF2CF808185FFEDCF12
:10127000CE010E94B008E9CFDF91CF91089583306D
:1012800081F028F4813099F08230A9F008958730F8
:10129000A9F08830C9F08430B1F4809180008F7D4E
:1012A00003C0809180008F7780938000089584B57B
:1012B0008F7784BD089584B58F7DFBCF8091B0007A
:1012C0008F778093B00008958091B0008F7DF9CF23
:1012D000CF93DF93282F30E0F901E85AF14F849142
:1012E000F901E359F04FD491F901E557F04FC4915A
:1012F000CC23A1F081110E943F09EC2FF0E0EE0F0A
:10130000FF1FE25BF14FA591B491EC91ED2381E0D9
:1013100090E009F480E0DF91CF91089580E090E0C3
:10132000FACF1F93CF93DF93282F30E0F901E85ACB
:10133000F14F8491F901E359F04FD491F901E55748
:10134000F04FC491CC23A9F0162F81110E943F09C0
:10135000EC2FF0E0EE0FFF1FEF57F04FA591B49187
:101360008FB7F894EC91111108C0D095DE23DC936F
:101370008FBFDF91CF911F910895DE2BF8CF909111
:10138000280189130BC0EFE9FFE0E4919FEF9093F0
:101390002801E13049F028F0E23061F060E00C947F
:1013A000910910926E00FACF90916F009D7F9093FB
:1013B0006F00F4CF909170009D7F9093700091E04A
:1013C0009093B0009091B100987F94609093B10099
:1013D0001092B300E3CFCF93DF9390E0FC01E35989
:1013E000F04F24918557904FFC0184918823D1F0D0
:1013F00090E0880F991FFC01E459F14FA591B49139
:10140000FC01EF57F04FC591D491623071F49FB752
:10141000F8943C91822F809583238C93E8812E2B26
:1014200028839FBFDF91CF9108958FB7F894EC91F7
:101430002E2B2C938FBFF6CF8F929F92AF92BF929D
:10144000CF92DF92EF92FF92CF936C0180912801AF
:10145000863069F08F3F09F470C0CF91FF90EF9014
:10146000DF90CF90BF90AF909F908F900895EFE95D
:10147000FFE0C491C7FDF1CF61E086E00E94EB0977
:10148000CC2319F0C23009F022C1F12CE12C60E02C
:1014900072E18AE790E0A70196010E942D3549018B
:1014A0005A01DA01C9010197A109B1098F3F9105DC
:1014B000A105B10509F00CF4EEC060E472E48FE020
:1014C00090E0A70196010E942D3521503109410974
:1014D0005109C23009F0A0C082E02F3F310541051B
:1014E000510509F00CF488C160E970ED83E090E0EB
:1014F000A70196010E942D3521503109410951095A
:1015000083E02F3F31054105510509F00CF474C10A
:1015100068E478EE81E090E0A70196010E942D3505
:1015200021503109410951092F3F3105410551052C
:1015300011F00CF08FC084E05FC186E08093280139
:10154000EFE9FFE0C491CF3F09F487CFC13021F12B
:1015500050F0C23009F43EC0C7FD7FCF61E086E0A5
:101560000E94EB098FCF14BC15BC84B5826084BD8A
:1015700085B5816085BDE1E9FFE0E491F0E0EE0F23
:10158000FF1FEF57F04F85919491E3E7FFE0E4915F
:10159000E093EC04C0E070CF1092800010928100C4
:1015A00080918100886080938100809181008160BA
:1015B00080938100E1E9FFE0E491F0E0EE0FFF1F8E
:1015C000EF57F04F85919491E3E7FFE0E491E093CA
:1015D000EB0452CF1092B0001092B1008091B00095
:1015E00082608093B0008091B10081608093B100EF
:1015F000E1E9FFE0E491F0E0EE0FFF1FEF57F04F5D
:10160000859194919093EA048093E904E3E7FFE0E5
:10161000E491E093E80430CF2F3F310541055105B7
:1016200009F00CF452C068E478EE81E090E0A70184
:1016300096010E942D352150310941095109CC23D1
:1016400009F4AFC02F3F31054105510511F00CF0F1
:10165000B0C071CF64E274EF80E090E0A701960122
:101660000E942D35215031094109510985E02F3F54
:1016700031054105510509F008F4BEC062E17AE781
:1016800080E090E0A70196010E942D35215031099C
:10169000410951099CC09C0181E0C111ADC095B5C3
:1016A000987F892B85BD27BD8FEF9FEFDC0180934D
:1016B000F5049093F604A093F704B093F804809196
:1016C0006E00826080936E00C8CE82E0E6CFF12C7F
:1016D000E12C60E072E18AE790E0A70196010E94A8
:1016E0002D35215031094109510991E0211531056C
:1016F00081E0480751056CF068E478EE81E090E005
:10170000A70196010E942D35215031094109510947
:1017100093E0C13009F076C080918100887F892BE9
:101720008093810030938900209388008FEF9FEF92
:10173000DC018093F1049093F204A093F304B0933E
:10174000F40480916F00826080936F0086CE2093B6
:10175000B3008FEF9FEFDC018093ED049093EE04D4
:10176000A093EF04B093F0048091700082608093A6
:10177000700073CE84E02F3F31054105510509F01B
:1017800008F48DCF9AE0B594A794979487949A958E
:10179000D1F7A5019401215031094109510985E092
:1017A0007ECF83E02F3F31054105510509F00CF450
:1017B00076CF62E17AE780E090E0A70196010E948F
:1017C0002D352150310941095109CC2399F286E088
:1017D0002F3F31054105510579F070F08AE0B5944D
:1017E000A794979487948A95D1F7A50194012150E5
:1017F00031094109510987E09091B100987F892B07
:101800008093B100C13009F48DCFC23009F49FCF6D
:10181000C11123CE48CF3FB7F894809143049091F3
:101820004404A0914504B091460426B5A89B05C088
:101830002F3F19F00196A11DB11D3FBFBA2FA92F4F
:10184000982F8827BC01CD01620F711D811D911D4C
:1018500042E0660F771F881F991F4A95D1F70895B8
:101860008F929F92AF92BF92CF92DF92EF92FF92B0
:101870004B015C010E940B0C6B017C010E940B0C64
:101880006C197D098E099F09683E73408105910599
:10189000A8F321E0821A9108A108B10888EEC80EC9
:1018A00083E0D81EE11CF11C81149104A104B10451
:1018B00029F7FF90EF90DF90CF90BF90AF909F906F
:1018C0008F9008952FB7F89460913F047091400471
:1018D00080914104909142042FBF089520911904F2
:1018E000260F3327331F21323105ECF42091B20447
:1018F000FC0190E080E0243069F082E00895A0913E
:1019000019042191AC0149505C4FA40FB52FB11DB2
:101910002C930196861798F380911904680F6093B1
:10192000190480E0089581E008951092B20481E0E6
:101930008093B10410928C0461E082E10E949109CD
:1019400061E083E10E949109E9EBF0E080818E7F04
:10195000808380818D7F808388E48093B80085E4D4
:101960008093BC000895CF93DF9391E09093F603AA
:101970008823B9F0C091B800D091BA008091BC0022
:101980008A7B8093BC0060E082E10E94910960E064
:1019900083E10E9491090E94950CD093BA00C093F4
:1019A000B800DF91CF910895CF92DF92EF92FF922E
:1019B0000F931F93CF93DF93D091DB0481E0D1325B
:1019C00008F09CC0C091DA040E940B0C6B017C01F2
:1019D0008091B20481116CC082E08093B20481E0F6
:1019E0008093B1048FEF8093B0041092AF04D09332
:1019F000AE04AAEBB4E0EEE8F4E080E0D8138DC0CA
:101A000010928D0480918D04CC0FC82BC0938D044F
:101A100080918C04813009F084C010928C040E9463
:101A20000B0C6B017C0180918D048093BB00809135
:101A3000B4049091B504A091B604B091B704892B79
:101A40008A2B8B2BA1F00E940B0C0091B4041091F7
:101A5000B5042091B6043091B7046C197D098E0944
:101A60009F09061717072807390708F442C0809115
:101A7000BC0083FDD8CF85EC8093BC000E940B0C8A
:101A80006B017C018091B204823009F44CC08091DA
:101A9000B0048F3F09F469C08091B004803209F42A
:101AA00066C08091B004803309F463C084E026C02E
:101AB0008091B4049091B504A091B604B091B7049C
:101AC000892B8A2B8B2B09F483CF0E940B0C00915E
:101AD000B4041091B5042091B6043091B7046C1988
:101AE0007D098E099F09061717072807390708F08F
:101AF0006FCF8091B3040E94B30C85E01092B904BB
:101B00001092DB041092B804DF91CF911F910F91D6
:101B1000FF90EF90DF90CF9008959D9191938F5F0C
:101B20006DCF85EEA9CF8091B4049091B504A091BA
:101B3000B604B091B704892B8A2B8B2B09F4A2CF62
:101B40000E940B0C0091B4041091B5042091B604CE
:101B50003091B7046C197D098E099F090617170784
:101B60002807390708F08ECFC4CF80E0C7CF82E0C6
:101B7000C5CF83E0C3CF089508950895E091F5039C
:101B80008091F403E81730F4F0E0EC52FC4F8081D0
:101B900090E008958FEF9FEF08959091F503809165
:101BA000F4032FEF3FEF981748F4E92FF0E0EC52E1
:101BB000FC4F208130E09F5F9093F503C9010895A9
:101BC0008091F4039091F503891B990B0895CF92AE
:101BD000DF92EF92FF920F931F93CF93DF937C01DD
:101BE000CB018A012091B804222389F0EB016B011B
:101BF000C40ED51ECC15DD0569F06991D701ED91B4
:101C0000FC910190F081E02DC7010995F3CF642F7D
:101C10000E946E0CC801DF91CF911F910F91FF9030
:101C2000EF90DF90CF900895CF93DF931F92CDB7C1
:101C3000DEB769832091B8042223F9F02091DB04F8
:101C4000203258F021E030E0FC013383228390E021
:101C500080E00F90DF91CF9108958091B904E82F33
:101C6000F0E0E654FB4F998190838F5F8093B90435
:101C70008093DB0481E090E0ECCF61E0CE0101963F
:101C80000E946E0CF7CF0F931F93CF93DF938B01BE
:101C900091E09093B80490E69093DA041092B9041E
:101CA0001092DB04682F86E995E00E94140EE8018B
:101CB00019E0115031F0699186E995E00E94140E07
:101CC000F8CFDF91CF911F910F910C94D40C90E03D
:101CD00080E0089580E10E94680921E030E00197EA
:101CE00011F430E020E0C9010895CF93C62F91E0B0
:101CF0009093B80490E69093DA041092B90410928D
:101D0000DB04682F86E995E00E94140E6C2F86E9AB
:101D100095E00E94140ECF910C94D40C4F925F92D8
:101D20006F927F928F929F92AF92BF92CF92DF92EB
:101D3000EF92FF920F931F93CF93DF93CDB7DEB750
:101D400028970FB6F894DEBF0FBECDBF882E6A016C
:101D50007B01A82EB12C01E010E001C0000F8A9594
:101D6000EAF790900601DB01CA018052914AA74030
:101D7000B10981329449A747B640F8F00929009388
:101D800006016091060183E00E94750E28960FB649
:101D9000F894DEBF0FBECDBFDF91CF911F910F91A1
:101DA000FF90EF90DF90CF90BF90AF909F908F907B
:101DB0007F906F905F904F900895609107017091B0
:101DC00008018091090190910A01A70196010E94E2
:101DD0000B3529013A01A701960122273327407FBD
:101DE000232B242B252B49F096958795779567957E
:101DF000F694E794D794C794EECF27E0660F771F49
:101E0000881F991F2A95D1F7A70196010E940B35CB
:101E1000E7E0440C551C661C771CEA95D1F7E2E01C
:101E20005E1A61087108420E531E641E751ED98227
:101E3000CA826B825C824D82F4E0CC0CDD1CEE1C0D
:101E4000FF1CFA95D1F7CC24DD2420EFE222FF24F9
:101E5000E82AEE827F836887882D880F880F880F95
:101E6000BE016F5F7F4F865D0E94430EF501E75D07
:101E7000FE4F60816C6080E1880D0E94750E0095B8
:101E80009022909206017DCF0F931F93CF93DF9303
:101E9000CDB7DEB728970FB6F894DEBF0FBECDBF23
:101EA0001092F5031092F4031092B9041092DB041F
:101EB0000E94950C8BEB9DE090931804809317047F
:101EC0008CEB9DE090931C0480931B0460E085E9FB
:101ED0000E94750E6091060183E00E94750E60E815
:101EE00087EB0E94750E8E010F5F1F4F88E0F8018F
:101EF00011928A95E9F781E08A838FE08C8380E8EC
:101F00008D83B8018AE10E94430E60E281EB0E945A
:101F1000750EB80182E20E94430E60EA81EB0E94D6
:101F2000750E80914F0490915004A0915104B0918E
:101F3000520480549F48A84DBB4C80930701909356
:101F40000801A0930901B0930A0140914B045091FC
:101F50004C0460914D0470914E0480E00E948E0EFE
:101F600028960FB6F894DEBF0FBECDBFDF91CF919C
:101F70001F910F910895FC0120812EBD9B012150DE
:101F8000310941F051810DB407FEFDCF4EB55EBD64
:101F90004193F5CF61507109860F971F0DB407FE6D
:101FA000FDCF2EB5FC0120830895FC01E61BF70B45
:101FB000681779071CF0FB01E81BF90B9C01241B37
:101FC000350B481759071CF09A01281B390BDA0109
:101FD000A61BB70B641775071CF0DB01A41BB50B20
:101FE0002E173F075CF0AE17BF072CF0860F971F28
:101FF000959587950895E217F3072CF0840F951FA8
:10200000A217B307ACF7640F751FCB01F1CF0CB467
:1020100005FC0DC09EBD00000DB407FEFDCF9EB5B2
:102020008EBD00000DB407FEFDCF8EB508958EBDA8
:1020300000000DB407FEFDCF8EB59EBD00000DB4AF
:1020400007FEFDCF9EB508958EBD00000DB407FEBE
:10205000FDCF8EB50895E6E7FFE09491E4E9FFE057
:10206000E491F0E0EE0FFF1FEF57F04FA591B49110
:10207000EC91E92BEC930C942410E6E7FFE09491AB
:10208000E4E9FFE0E491F0E0EE0FFF1FEF57F04FBF
:10209000A591B4912C91E92FE095E223EC930C9457
:1020A0002410CF92DF92EF92FF920F931F93CF9362
:1020B000DF93D82EC92E162F072FF42EE52EE90117
:1020C0008AE20E943D108C2D0E942B108D2D0E94C3
:1020D0002B108E2D0E942B108F2D0E942B108BE227
:1020E0000E943D10802F0E942B10812F0E942B10E8
:1020F0008D2F0E942B108C2F0E942B108CE2DF91D1
:10210000CF911F910F91FF90EF90DF90CF900C94A3
:102110003D102F923F924F925F926F927F928F92DB
:102120009F92AF92BF92CF92DF92EF92FF920F9366
:102130001F93CF93DF930E94620C2B013C0180918F
:10214000000190910101A0910201B0910301A3014E
:102150009201281B390B4A0B5B0BDA01C90103976B
:10216000A105B10508F469C081E58CBD81E08DBD94
:1021700060E088E00E94910981EB0E94241081ECCC
:1021800090E00E940710EC0163E0D695C7956A9530
:10219000E1F7C150D04F81E990E00E94071073E051
:1021A000969587957A95E1F7C81BD90BC03931E030
:1021B000D3070CF46EC081E990E00E94071081ED16
:1021C00090E00E9407106C0123E0D694C7942A95F2
:1021D000E1F781E990E00E9407107C0133E0F6947A
:1021E000E7943A95E1F781ED90E00E9407105C01D9
:1021F00043E0B694A7944A95E1F781E990E00E9404
:1022000007104C0153E0969487945A95E1F780EDBE
:1022100090E00E9407108C0190E080E00E9407107F
:102220001C0161E088E00E949109C03941E0D407B7
:10223000CCF510925203109251038091510390916A
:102240005203803991400CF457C080914F03909114
:102250005003909389048093880480914D0390915A
:102260004E0390938B0480938A0481E0DF91CF9199
:102270001F910F91FF90EF90DF90CF90BF90AF90A4
:102280009F908F907F906F905F904F903F902F9096
:102290000895912C812CB12CA12CF12CE12CD12C66
:1022A000C12CB5CFD0935203C0935103A80183E052
:1022B000569547958A95E1F7B501C6010E94D50F5D
:1022C000EC01A10193E0569547959A95E1F7B40189
:1022D000C7010E94D50F4092000150920101609207
:1022E000020170920301D0935003C0934F03909367
:1022F0004E0380934D03A1CF80E0B8CF0F931F937F
:10230000CF93DF93182F8091140120E4829FC001A6
:102310001124866080937C0080917A008064809391
:102320007A0080917A00C82FC07486FDFACF0091A0
:102330007800D091790081E10E946809892B09F128
:102340009D2F802F893522E09207ECF0813223E027
:102350009207ACF020911E01211104C0C1E0C39787
:1023600008F0C0E0113029F480911D018C2B80937E
:102370001D018C2FDF91CF911F910F910895C2E025
:10238000F1CFC1E0EFCF8D3221E09207D4F7833354
:10239000910504F3C3E0E6CF86E00E94BF0960E048
:1023A00082E00E9491090E94620CAB01BC01209165
:1023B0001B0130911C01EAE0E29FC001E39F900DF8
:1023C0001124092E000CAA0BBB0B840F951FA61F0E
:1023D000B71F80935A0490935B04A0935C04B0935E
:1023E0005D04089580910C0190910D010E941C0ADA
:1023F00061E082E00E9491090E94620CAB01BC0185
:1024000020911B0130911C01EAE0E29FC001E39F93
:10241000900D1124092E000CAA0BBB0B840F951FE5
:10242000A61FB71F80935A0490935B04A0935C048B
:10243000B0935D040895609154046623B1F1062EB3
:10244000000C770B80914A03082E000C990B97FF24
:1024500003C091958195910940914B03042E000C86
:10246000550B57FF03C0519541955109282F481727
:102470000CF4242F80914C03082E000C990B97FF2D
:1024800003C091958195910928170CF4822F8F5FD5
:10249000880290011124269FC001279F900D369F2E
:1024A000900D112410925404089590E080E0089556
:1024B0008EE00E946809892B39F48FE00E94680938
:1024C000892B21F480E0089581E0089582E0089549
:1024D0000F931F93CF93DF938C01CDE7DEE04CE0A9
:1024E00050E0BE018CED94E00E945D34B801809113
:1024F000E4049091E5040E94BA35892B59F42C9696
:102500008FE0C136D80759F780E0DF91CF911F9156
:102510000F91089581E0F9CFCF93DF93EB010E94F3
:10252000E1348883CE01DF91CF9108950F931F93FB
:10253000CF93DF938C01EB010E94E1348883C801C3
:1025400001960E94E1348983CE01DF91CF911F91E2
:102550000F910895CF92DF92EF92FF920F931F9306
:10256000CF93DF93EB017B0124E0E20EF11C8B01A2
:102570006C01C61AD70AC601800F911F0E94E13470
:10258000F80181938F01EE15FF05A9F7CE01DF91C8
:10259000CF911F910F91FF90EF90DF90CF90089512
:1025A00085ED8093BC008091B4049091B504A09116
:1025B000B604B091B7040796A11DB11D23E0B695EE
:1025C000A795979587952A95D1F72091BC0024FD72
:1025D00003C01092B20408954091B4045091B50420
:1025E0006091B6047091B704452B462B472B69F3D5
:1025F0000097A105B10541F025E32A95F1F7000008
:102600000197A109B109E1CF8091B3040C94B30CF7
:10261000CF92DF92EF92FF92CF93DF936B017C0119
:10262000EA018AE0DA011D928A95E9F7EEE5F4E025
:102630008EE1DF011D928A95E9F72AE0AF01C7011B
:102640000E949534B0E4CB16B2E4DB06BFE0EB06A3
:10265000F104CCF443E050E06EE574E0CE010E945A
:10266000AA3562EA71E0CE010E948F3542E050E067
:1026700061E674E0CE01DF91CF91FF90EF90DF90A3
:10268000CF900C94AA35E0E8CE16E6E9DE06E8E93C
:10269000EE06F1048CF444E050E06EE574E0CE0107
:1026A0000E94AA3562EA71E0CE010E948F3542E0B5
:1026B00050E062E674E0DECF45E050E06EE574E0A5
:1026C000CE010E94AA3562EA71E0CE010E948F35E8
:1026D00042E050E063E674E0CDCFFF920F931F938A
:1026E000CF93DF93EC01F62E08811981C8010E9477
:1026F000E134F81621F06F2DC8010E94E934CE01B3
:10270000DF91CF911F910F91FF900895EF92FF926B
:102710000F931F93CF93DF9300D0CDB7DEB78C011B
:102720007B019A838983FB016081CE0101960E941F
:102730006D130F5F1F4F1A830983F7016181CE016B
:1027400001960E946D13C7010F900F90DF91CF91FA
:102750001F910F91FF90EF900895AF92BF92CF928B
:10276000DF92EF92FF920F931F93CF93DF9300D0EE
:10277000CDB7DEB78B016B0124E0C20ED11C7B010B
:102780005C01A61AB70AC5018E0D9F1D9A83898325
:10279000F70161917F01CE0101960E946D13EC1447
:1027A000FD0489F7C8010F900F90DF91CF911F9121
:1027B0000F91FF90EF90DF90CF90BF90AF90089572
:1027C000CF93DF9300D0CDB7DEB780911F016FE7C5
:1027D00074E0803111F065E171E080E190E00E94E9
:1027E000AD1380914A04882359F183E090E09A83E5
:1027F0008983BE016F5F7F4F80E091E00E94861366
:1028000080911F016FE774E0843111F060E171E0A5
:1028100084E190E00E94AD1380910B01882399F030
:1028200083E090E09A838983BE016F5F7F4F81E0F0
:1028300091E00E9486130F900F90DF91CF91089541
:1028400082E090E0D4CF82E090E0ECCFCF93DF93B2
:10285000EC0184E092E00E94681260E571E0CE0134
:102860000E949A35892B51F410927D040E94E01346
:102870008CED94E0DF91CF910C94001F81E0809368
:102880007D04F4CFFF920F931F93CF93DF9300D07B
:10289000CDB7DEB720911F01409709F083C02431E6
:1028A00051F580917F0490918004A0918104B091B2
:1028B00082048093100190931101A0931201B093B0
:1028C000130180917D0480930B016FE774E084E134
:1028D00090E00E94AD1380910B01882309F45FC042
:1028E00083E090E09A838983BE016F5F7F4F81E030
:1028F00091E00E94861380E180931F018091150171
:1029000090911601A0911701B091180180937F0456
:1029100090938004A0938104B093820480914A0430
:1029200080937D0460917F04709180048091810484
:10293000909182040E94BC1A0E94671B88E591E076
:102940000E9468128CED94E00E94001F0E94981E65
:1029500008EC13E08CE0F82EF8018F2D11928A9587
:10296000E9F780E190E00E94381AF8011192FA9498
:10297000E9F784E190E00E94381A80917D0481118A
:1029800055C080E591E00E9426140E94E0130F904C
:102990000F90DF91CF911F910F91FF90089582E0EA
:1029A00090E0A0CF203149F580917F049091800480
:1029B000A0918104B0918204809315019093160137
:1029C000A0931701B093180180917D0480934A046D
:1029D0006FE774E080E190E00E94AD1380914A04BB
:1029E000882309F183E090E09A838983BE016F5FB9
:1029F0007F4F80E091E00E94861384E180931F0165
:102A00008091100190911101A0911201B0911301D8
:102A100080937F0490938004A0938104B0938204F8
:102A200080910B017DCF82E090E0DECF84E591E0E4
:102A3000AACF8F929F92AF92BF92CF92DF92EF92E6
:102A4000FF920F931F93CF93DF93CDB7DEB72E97EF
:102A50000FB6F894DEBF0FBECDBF89EF94E00E94A1
:102A60009008892BA9F410929F032E960FB6F89424
:102A7000DEBF0FBECDBFDF91CF911F910F91FF90B1
:102A8000EF90DF90CF90BF90AF909F908F90089580
:102A900089EF94E00E94900805970CF042C01091D5
:102AA0009F03111115C089EF94E00E949008809354
:102AB0009F030E94620C6C507E4F8F4F9F4F60931C
:102AC0009303709394038093950390939603CDCFD3
:102AD0000E94620CC0909303D0909403E090950301
:102AE000F0909603C616D706E806F90688F410E0BB
:102AF00089EF94E00E949008181719060CF0B3CFE4
:102B000089EF94E00E946E0880939F031F5FF0CFCF
:102B100089EF94E00E949008181719060CF0A5CFD1
:102B2000C2CF0AE913E089EF94E00E946E08F80131
:102B300081938F01F3E00F391F07A9F78091990363
:102B4000813009F492CF91E09093990320919703FB
:102B5000309198032F5F3F4F309398032093970352
:102B600080919E03813809F454C1D0F5833009F473
:102B7000D9C0D0F4813009F454C0823009F4C4C003
:102B800060919A0370919B0380919C0390919D03A7
:102B900020E140EA53E00E9495341A8660E089EF14
:102BA00094E00E94D208B6C0873009F40FC1883083
:102BB00039F780918404811129C11A869093850484
:102BC0000E94EC1D0E94B51A41E050E0BE01665F14
:102BD0007F4F89EF94E00E9432080E94B51A9AC094
:102BE0008B3B09F423C178F4823809F496C0883805
:102BF00039F680918404882321F00E94891D109267
:102C000085041A86E1CF873E09F4CCC1873F09F0DD
:102C1000B7CF80918404882309F4C7C180E0885F1E
:102C2000C2C100919A0310919B03F0919C03E09123
:102C30009D03A02FA295AF70B0E020E031EE45EFEC
:102C400055E00E946A356B017C010F70A02FB0E047
:102C500020E836E948E950E00E946A35C60ED71EE2
:102C6000E81EF91EA12FAF70B0E020EA36E841E07F
:102C700050E00E946A35C60ED71EE81EF91E129556
:102C80001F70A12FB0E020E432E44FE050E00E943A
:102C90006A35C60ED71EE81EF91E2F2F2F7030E0A2
:102CA000A8EEB3E00E945435C60ED71EE81EF91EEA
:102CB000F295FF702F2F30E0A0E1B7E20E9454356B
:102CC000C60ED71EE81EF91E2E2F2F7030E0AAE088
:102CD000B0E00E945435C60ED71EE81EF91EE295DC
:102CE000EF702E2F30E0A4E6B0E00E9454356C0D5A
:102CF0007D1D8E1D9F1D0E94BC1A1A8641E050E06A
:102D0000BE01665F7F4F5BC081E090E09093BF03A0
:102D10008093BE0310929903A8CE1092BF03109225
:102D2000BE03F8CF60917F0470918004809181048C
:102D3000909182048E010F5F1F4F7E012AE0E20E08
:102D4000F11C2AE0822E912CA12CB12CA50194011A
:102D50000E940B35F80161938F01B901CA01EE168B
:102D6000FF06A1F78A818F702B81F0E12F9F9001E0
:102D70001124822B8D878C818F702D8190E1299F6A
:102D800090011124822B8C878E818F702F81E0E13E
:102D90002E9F90011124822B8B8788858F70298527
:102DA000F0E12F9F90011124822B8A8780917D046E
:102DB000882351F081E08E8745E050E0B70189EF2C
:102DC00094E00E943208A6CF1E86F6CF80919A0327
:102DD000882311F08330B9F410927D041A8641E003
:102DE00050E0BE01665F7F4F89EF94E00E94320899
:102DF00060917F047091800480918104909182049D
:102E00000E94BC1A87CF90937D04E8CF80EF8A8719
:102E1000DBCE1A8680911F01803129F484E190E095
:102E20000E944214D1CE80E190E0FACF90919A03B3
:102E300080919B0310929A0310929B03803609F4B1
:102E400090C0F8F4873509F456C070F4873409F45B
:102E500041C0853509F445C0853471F480ED933067
:102E600059F480939B0308C08E3509F44EC008F0D6
:102E700074C08C3509F444C042E050E06AE973E064
:102E80009ECF873609F480C060F4823609F46FC0A3
:102E900008F451C0833681F782EB80939A0385EA68
:102EA000E0CF883719F078F4893631F780917D04C6
:102EB000882319F081E080939A0380919A038823F4
:102EC000D9F280E213C08A3709F462C0833BA1F6CD
:102ED0008DE4C7CF933081F68CED80939A0380EE1A
:102EE000C0CF80911F01843121F080E880939A0344
:102EF000C3CF81E8FBCF80EC80939A0380E4B1CF0D
:102F000082EB80939A0382E4ACCF60910C017091C4
:102F10000D0180910E0190910F016C527140810959
:102F2000910922E330E040E050E00E940B3520930D
:102F30009A0385E296CF60910C0170910D0180910A
:102F40000E0190910F0122E330E040E050E00E943A
:102F50000B3560939A0388E084CF82E380939A03D1
:102F6000FACF80911B0180939A0382E37ACF60911C
:102F7000190170911A0180EB94E00E94F7346450BB
:102F800060939A0382EB6DCF82EB80939A0369CFB3
:102F90008091BE039091BF03892B11F48FE7A6CFD8
:102FA0008FEFA4CF89E08A87A9CE80E838CE8F92B0
:102FB0009F92AF92BF92CF92DF92EF92FF926C01FD
:102FC0000E94620C4B015C010D2C000CEE08FF0806
:102FD0000E94620C681979098A099B09C616D706EE
:102FE000E806F90648F06AE070E080E090E00E94B0
:102FF000300C0E941915ECCFFF90EF90DF90CF902E
:10300000BF90AF909F908F9008952F923F924F92D4
:103010005F926F927F928F929F92AF92BF92CF9268
:10302000DF92EF92FF920F931F93CF93DF93CDB771
:10303000DEB7C654D1090FB6F894DEBF0FBECDBFC0
:103040005C014B0126962FAF269727963FAF279717
:103050002091480430914904F901349654913297F3
:1030600085919491451B57E0459F800D911D11243A
:10307000F9012591349125963FAF2EAF2597FC019C
:10308000C590D490FC013296349122963FAF22979E
:103090003196549123965FAF2397329644903196A0
:1030A000F49060E08AE00E94910922968FAD229709
:1030B000282F30E01901220C331C712C612C80E088
:1030C000E12C8F0C911CF7FC9A94A40CB11C47FCCA
:1030D000BA942501420E531E23969FAD239769167D
:1030E00008F054C0DE0111962296FFAC2297F80E2C
:1030F0008F1521F191E0980F877059F496012F5F99
:103100003F4F2596EEADFFAD2597EC0DFD1DE490EC
:103110006901E7FE0EC02796EFAD2797EC93269640
:10312000FFAD26971196FC931197EE0C1296892FFE
:10313000DFCF1C9311960C931197F7CFB401660D56
:10314000771D9B01A201C5010E945110E6E7FFE037
:103150008491E4E9FFE09491E92FF0E0EE0FFF1F86
:10316000EF57F04FA591B4919C91892B8C9321142A
:10317000310429F0B101CE0101960E94BB0F0E94DB
:103180001915FFEF6F1A7F0A8F2DA6CFCA5BDF4F8D
:103190000FB6F894DEBF0FBECDBFDF91CF911F9168
:1031A0000F91FF90EF90DF90CF90BF90AF909F90E6
:1031B0008F907F906F905F904F903F902F900895E9
:1031C0004F925F926F927F92AF92BF92CF92DF92B7
:1031D000EF92FF920F931F93CF93DF93EC017B014C
:1031E0006A0159019A01281B390B2F5F3F4FD50106
:1031F000A61BB70B11960E944C352B013C0160E0D9
:103200008AE00E9491098CE20E943D109501A6017E
:10321000B701CE010E945110E6E7FFE08491E4E996
:10322000FFE0E491F0E0EE0FFF1FEF57F04FA591A4
:10323000B491EC91E82BEC934114510461047104B6
:1032400031F1E3E5F3E010830183329683E0E33963
:10325000F807C9F781E2481651046104710470F05F
:1032600060E470E083E593E00E94BB0F80E2481ABF
:103270005108610871080E941915DECFB201660F6E
:10328000771F83E593E00E94BB0F0E94191561E050
:103290008AE0DF91CF911F910F91FF90EF90DF9027
:1032A000CF90BF90AF907F906F905F904F900C94B5
:1032B00091092F923F924F925F926F927F928F92DD
:1032C0009F92AF92BF92CF92DF92EF92FF920F93B5
:1032D0001F93CF93DF93EB017A01490158016C01F1
:1032E00087E0282E3A0182E1680E711CF6013190C8
:1032F0006F01332009F444C080914804909149043F
:10330000FC0134962491432D032C000C550B2417FB
:10331000150609F05CF73196E491E417150634F3CD
:10332000FC01329645905490832D821B829D400C67
:10333000511C1124F2013296849131962491F4E0CB
:103340004F0E511C8823B9F02223A9F0F2014491B9
:103350002E0D3F2D311D4C0F5D2F511D8501B701E5
:10336000CE010E94E0189401432DB301CE010E94CA
:1033700005180E941915F2014490C40DD11DB6CF55
:10338000DF91CF911F910F91FF90EF90DF90CF9041
:10339000BF90AF909F908F907F906F905F904F9075
:1033A0003F902F9008950F931F930FE010E029EFA7
:1033B00030E04CE453E062ED70E082EC90E00E947B
:1033C000E0184AE060EA73E080910C0190910D01F1
:1033D0000E9466346CE571E08EE594E00E94A335AE
:1033E00060EA73E08EE594E00E948F352FEF37E0BE
:1033F00042ED50E062EC70E08EE594E00E945919D5
:103400001F910F9108950F931F930FE010E029EF84
:1034100030E04CE750E062ED70E080E490E00E9424
:10342000E0186091190170911A0180EB94E00E94FC
:10343000F734CB014AE060EA73E00E9466346CE541
:1034400071E08EE594E00E94A33560EA73E08EE5BA
:1034500094E00E948F352FEF37E042ED50E060E4BA
:1034600070E08EE594E00E9459191F910F91089524
:103470000F931F938031910509F04FC08FE591E0C4
:103480000E9468128091BE039091BF036AE671E0CA
:10349000892B41F080911F0164E671E0803111F0C9
:1034A00067E671E080EA93E00E94A33580911F01F6
:1034B000803121F560917F047091800480918104B6
:1034C0009091820442EA53E00E9408132FEF3FEFED
:1034D0004091DE045091DF046091DC047091DD04C2
:1034E00010E000E080EA93E00E94591960EA73E07E
:1034F00088EC93E01F910F910C94A3356091150116
:1035000070911601809117019091180142EA53E0E1
:103510000E94081320EE37E0DBCF4497C9F68DE612
:1035200091E00E9468128091BE039091BF0362E710
:1035300071E0892B41F080911F0164E671E08431D4
:1035400011F067E671E080EA93E00E94A335809174
:103550001F01843109F4AECF609110017091110107
:103560008091120190911301D1CF80911F01082EFB
:10357000000C990B0C94381ACF92DF92EF92FF92C5
:103580006B017C0160E081E0C8168DE2D80681E322
:10359000E80681E0F80650F461E080E8C81686E9A4
:1035A000D80688E9E806F10408F447C085E00E94DF
:1035B000910960E084E00E94910960E083E00E944C
:1035C0009109809186049091870420917D042223A3
:1035D00009F450C0892B09F446C040910C01509168
:1035E0000D0160910E0170910F01485357446145E0
:1035F0007D4F4C0D5D1D6E1D7F1D82E00E948E0E65
:1036000040914B0450914C0460914D0470914E04D4
:103610004853574461457D4F81E00E948E0EC09211
:103620007F04D0928004E0928104F0928204FF90A3
:10363000EF90DF90CF900C94B51A80E6C8168DE518
:10364000D80686E5E806F10428F085E00E94910995
:1036500061E0B0CF85E00E94910961E084E00E94C2
:10366000910961E0ABCFB701A601485357446145CA
:103670007D4FC3CF892B21F140910C0150910D0159
:1036800060910E0170910F014853574461457D4F81
:103690004C0D5D1D6E1D7F1D82E00E948E0E80917F
:1036A0004B0490914C04A0914D04B0914E0448EC11
:1036B00058EB6EEA72E0481B590B6A0B7B0BACCFE0
:1036C000B701A6014853574461457D4FE5CF80912E
:1036D0008304882361F0109283046091C403709185
:1036E000C5038091C6039091C7030C94BC1A08953A
:1036F0000F931F938C012FEE30E04FE351E070E009
:1037000060E090E080E00E94E0181F910F91089522
:103710000F931F93460F571F89019A01AC010E9416
:10372000E0181F910F9108950F931F93480F591F91
:1037300089019B010E94E0181F910F910895AF929B
:10374000BF92CF92DF92EF92FF920F931F93CF938E
:10375000DF93EC017B016A01590198010E94941BDF
:10376000B7016A0D7B1D9801A601CE010E94941B32
:103770009801A501B701CE010E94881B9801A501FF
:10378000B701CE018C0D9D1DDF91CF911F910F913F
:10379000FF90EF90DF90CF90BF90AF900C94881B7C
:1037A0000F931F93CF93DF93CDB7DEB72C970FB650
:1037B000F894DEBF0FBECDBF8B012CE0289FB00177
:1037C000299F700D11246358714F4CE050E0CE01D9
:1037D00001960E945D342F8138854D815E816B8119
:1037E0007C8189819A810E949F1B2C960FB6F89448
:1037F000DEBF0FBECDBFDF91CF911F910F91089516
:10380000EF92FF920F931F93CF93DF937C01EB0115
:1038100090E080E00E94781B0FEF1FEF2CED30E06E
:103820004CE251E06AE070E08AE090E00E949F1B69
:103830002FEF3FEF48E151E060E570E084E190E078
:103840000E94941B28ED30E048E251E06CE070E00B
:103850008CE090E00E949F1B0FE010E02FEF37E01C
:1038600044E150E064E170E0C7010E9459192FEF74
:1038700037E048EC50E064E170E0CE010E94591955
:10388000DF91CF911F910F91FF90EF9008950F93CB
:103890001F93CF93DF93EC01809104019091050178
:1038A00097FD12C02EE1289FB001299F700D1124B1
:1038B0006F5C7F4F0FE010E029E130E042E251E021
:1038C0008FE090E00E949F1B8EE18C9FB0018D9F46
:1038D000700D11246F5C7F4F0FEF1FEF29E130E077
:1038E00042E251E08FE090E00E949F1BD0930501DF
:1038F000C0930401DF91CF911F910F9108952F92F2
:103900003F924F925F926F927F928F929F92AF926F
:10391000BF92CF92DF92EF92FF920F931F93CF93BC
:10392000DF9300D000D0CDB7DEB71C013B015C8334
:103930004B8329014801FA82E9829A01200F311F45
:10394000A201460F571F86016B817C81C3010E9433
:10395000E01885019401A2016B817C81C3010E9462
:103960009F1BA0904804B0904904B5016C5F7F4F45
:10397000A5014B5F5F4F22E0A20EB11C7101D10186
:1039800090E080E017E03D903320E9F0FB012490C7
:10399000232D032C000C330B2216130609F09CF781
:1039A000FA0104910217130674F3F501259134917D
:1039B0003218F901319EE00DF11D11243496E49185
:1039C0008E0F911DE0CF481A590A57FE03C0FFEF32
:1039D0004F1A5F0A55944794640C751CC4014297B2
:1039E00097FD0196959587952B813C81280F391F6E
:1039F00047E0B42E2E5E3F4F3C832B83F70141916D
:103A00007F01442309F437C0809148049091490410
:103A1000FC0134962491642F042E000C770B26179A
:103A2000170609F05CF73196E491E617170634F3B0
:103A3000FC01329685909490842F821B8B9D800C84
:103A4000911C1124F401329684913196E4918823DB
:103A500061F0EE2351F0860129813A816B817C81EE
:103A6000C3010E9405180E941915F4013496E491CF
:103A70006E0E711CC3CF0F900F900F900F90DF91BF
:103A8000CF911F910F91FF90EF90DF90CF90BF905B
:103A9000AF909F908F907F906F905F904F903F90EE
:103AA0002F900895AF92BF92CF92DF92EF92FF9244
:103AB0000F931F93809184048823F1F08FE1A82E47
:103AC000B12C90E2C92E9DEFD92EF12CE12C06E10C
:103AD00010E025E230E040E550E068E171E085E784
:103AE00091E00E947F1C1F910F91FF90EF90DF905B
:103AF000CF90BF90AF9008950FE010E026E630E041
:103B00004DE351E060E570E088E191E00E94E0184B
:103B1000EACF1092840460E087E00E94910940910E
:103B20004B0450914C0460914D0470914E0480E020
:103B30000E948E0E80918304882361F06091C003FF
:103B40007091C1038091C2039091C3030E94BC1A7B
:103B50000C94521D8091BE039091BF030197D9F43C
:103B600080911F01843101F580E180931F018091D4
:103B7000150190911601A0911701B0911801809341
:103B80007F0490938004A0938104B0938204809179
:103B90004A0480937D0460917F0470918004809139
:103BA000810490918204D2CF8031A9F784E180937F
:103BB0001F018091100190911101A0911201B0910B
:103BC000130180937F0490938004A0938104B093A9
:103BD000820480910B01DDCFCF93C82F61E087E095
:103BE0000E94910981E0809384048091830488235A
:103BF00009F455C080917F0490918004A0918104C4
:103C0000B09182048093C0039093C103A093C20338
:103C1000B093C3036091C4037091C5038091C60340
:103C20009091C7030E94BC1AC130B1F560E087E0F3
:103C30000E94910940E050E0BA0180E00E948E0E9F
:103C400040E050E0BA0181E00E948E0E20917D0498
:103C500040917F04509180046091810470918204AE
:103C600080910C0190910D01A0910E01B0910F0176
:103C7000222309F458C0480F591F6A1F7B1F82E096
:103C80000E948E0E64E170E080E090E00E94300CB3
:103C900061E087E00E949109CF910C94521D8091C0
:103CA000BE039091BF030197D9F480911F01843125
:103CB00001F580E180931F0180914A0480937D0487
:103CC0008091150190911601A0911701B0911801F2
:103CD00080937F0490938004A0938104B093820426
:103CE00060917F047091800480918104909182049E
:103CF00099CF8031A9F784E180931F018091100151
:103D000090911101A0911201B091130180937F0451
:103D100090938004A0938104B093820480910B015E
:103D200080937D04DDCF481B590B6A0B7B0BA7CF1B
:103D3000AF92BF92CF92DF92EF92FF920F931F93B9
:103D40000FE010E024E630E040E451E060E570E090
:103D500090E080E00E94E018809183048823B1F114
:103D600068E771E080EA93E00E94A3356091C403A4
:103D70007091C5038091C6039091C70343EA53E055
:103D80000E94081380911F014FE0A42EB12C5FE028
:103D9000C52ED12CEE24EA94FE2C04E110E02FE98C
:103DA00030E040E550E070E060E0803111F060EA22
:103DB00070E080EA93E00E947F1C1F910F91FF90BA
:103DC000EF90DF90CF90BF90AF90089580911F014A
:103DD0009FE0A92EB12C2FE0C22ED12CEE24EA9424
:103DE000FE2C04E110E02FE930E040E550E070E007
:103DF00060E0803111F060EA70E08EE591E0DBCFA9
:103E00004F925F926F927F928F929F92AF92BF92EA
:103E1000CF92DF92EF92FF920F931F93CF93DF9396
:103E20004C01DC011896CD91DC916FE571E0CE017B
:103E30000E949A35892BD9F4E8ECF3E08CE0DF019D
:103E40001D928A95E9F780E190E0DF91CF911F9173
:103E50000F91FF90EF90DF90CF90BF90AF909F9029
:103E60008F907F906F905F904F900C94381A6DE612
:103E700071E0CE010E949A35892B51F4E8ECF3E011
:103E80008CE0DF011D928A95E9F784E190E0DDCFB7
:103E900068E571E0CE010E949A35F4010681178130
:103EA000648075804280538080809180892B21F4CA
:103EB00080918304813029F16CE771E0CE010E948A
:103EC0009A35892B31F48091BE039091BF030197FD
:103ED000C1F060E871E0CE010E949A35892B31F47F
:103EE0008091860490918704019759F063E871E00E
:103EF000CE010E949A35892B99F480917E048130FD
:103F000079F47FEEA72E7BE7B72EE0E2CE2EEDEF21
:103F1000DE2EF12CE12C9301A201B401CE011BC0D5
:103F200064E072E0CE010E94BA35892BA9F180913C
:103F30007D046FEEA62E6BE7B62E8823F9F04FE1D5
:103F4000C42ED12C50EEE52EFF24FA949301A20149
:103F5000B40184E591E00E947F1CDF91CF911F9115
:103F60000F91FF90EF90DF90CF90BF90AF909F9018
:103F70008F907F906F905F904F90089528E1C22EB0
:103F80002CEFD22E30EEE32E37E0F32E9301A20178
:103F9000B40180E591E0DFCF8FEEA82E8BE7B82E3D
:103FA000D12CC12C90EEE92E97E0F92EB4CF1F93BF
:103FB000CF93DF932091BE033091BF03232B49F1B0
:103FC0001092BF031092BE030E94001F0E94671B45
:103FD00088E591E00E9468128CED94E00E94001F39
:103FE0000E94981EC8ECD3E01CE0FE01812F1192C4
:103FF0008A95E9F780E190E00E94381AFE0111925B
:104000001A95E9F784E190E0DF91CF911F910C942C
:10401000381A21E030E03093BF032093BE03D4CFA1
:10402000CF93DF93EC018091830481111AC08091BA
:104030007F0490918004A0918104B091820421E0DA
:10404000209383048093C4039093C503A093C60375
:10405000B093C703CE010E94001FDF91CF910C9453
:10406000981E0E94671BF6CFFF920F931F93CF936A
:10407000DF93CDB7DEB72C970FB6F894DEBF0FBE37
:10408000CDBF8FE090E00E94781B08EC13E08CE03D
:10409000F82EF8018F2D11928A95E9F780E190E0D2
:1040A0000E94381A0E941915F8011192FA94E9F742
:1040B00084E190E00E94381A0E9419150E94981E0F
:1040C0000E9419150DE71EE04CE050E0B801CE014A
:1040D00001960E945D34CE0101960E94001F0E944D
:1040E0001915045F1F4FFFE00D361F0769F70E9487
:1040F000031A0E94D3190E9419152C960FB6F89432
:10410000DEBF0FBECDBFDF91CF911F910F91FF900A
:104110000895AF92BF92CF92DF92EF92FF920F93EA
:104120001F932EE1E0EAF3E0DF01322F1D923A9572
:10413000E9F7EEE5F4E0DF011D922A95E9F72AE0C0
:10414000AF010E94953442E050E06EE574E080EAF1
:1041500093E00E94AA3562EA71E080EA93E00E944F
:104160008F3543E050E060E674E080EA93E00E941F
:10417000AA3562EA71E080EA93E00E948F3541E05F
:1041800050E063E674E080EA93E00E94AA358FE095
:10419000A82EB12C9FE0C92ED12CEE24EA9427E062
:1041A000F22E0EE110E024E630E044E650E06EE648
:1041B00070E080EA93E00E947F1C1F910F91FF90B6
:1041C000EF90DF90CF90BF90AF900895AF92BF92E5
:1041D000CF92DF92EF92FF920F931F9390E080E0D7
:1041E0000E94781BAA24AA94BA2C9FE0C92ED12C35
:1041F000EE24EA94FE2C03E210E02CE231E04AE0E7
:1042000050E06AE070E087E891E00E947F1C0FEFC9
:104210001FEF2CED30E04CE251E06AE070E08AE004
:1042200090E00E949F1B0FE010E02FEF3FEF42E372
:1042300050E06EE170E08DE891E00E9459192FEF97
:104240003FEF40E550E06EE170E089E991E00E94C7
:1042500059192FEF3FEF4EE650E06EE170E084EA2F
:1042600091E00E9459192FEF3FEF4CE850E06EE1CA
:1042700070E080EB91E00E9459192FEF3FEF4AEA7E
:1042800050E06EE170E08CEB91E00E9459192FEF45
:104290003FEF48EC50E06EE170E08CEC91E00E9462
:1042A00059191F910F91FF90EF90DF90CF90BF9021
:1042B000AF9008954F925F926F927F928F929F92EC
:1042C000AF92BF92CF92DF92EF92FF920F931F9324
:1042D000CF93DF9390E080E00E94781BB12CA12C5B
:1042E000D12CC12CEE24EA94FE2C02E310E028EC41
:1042F00030E044E650E064E170E081ED91E00E943E
:104300007F1C2FEF3FEF44E150E064E170E08AE072
:1043100090E00E94941B2FEF3FEF44E150E06AE0F1
:1043200070E084E190E00E94881B0E948910811156
:1043300007C064E670E080E090E00E94300CF5CFAA
:104340000E948910882339F064E670E080E090E0F4
:104350000E94300CF5CFA0908804B0908904C090E2
:104360008A04D0908B0430E020E044E150E064E126
:1043700070E08AE090E00E94941B30E020E044E18D
:1043800050E06AE070E084E190E00E94881B68EEF3
:1043900073E080E090E00E94300C2FEF3FEF44E1AB
:1043A00050E064E170E082E291E00E94941B2FEF04
:1043B0003FEF44E150E06AE070E08CE291E00E945F
:1043C000881B0E948910811107C064E670E080E0BC
:1043D00090E00E94300CF5CF0E948910882339F0BC
:1043E00064E670E080E090E00E94300CF5CFE09051
:1043F0008804F090890440908A0450908B0430E047
:1044000020E044E150E064E170E082E291E00E944B
:10441000941B30E020E044E150E06AE070E08CE280
:1044200091E00E94881B68EE73E080E090E00E94BB
:10443000300C2FEF3FEF44E150E06CED70E08AE08C
:1044400090E00E94941B2FEF3FEF44E150E062EDBB
:1044500070E084E190E00E94881B0E948910811125
:1044600007C064E670E080E090E00E94300CF5CF79
:104470008090880490908904C0918A04D0918B0424
:104480000E948910882339F064E670E080E090E0B3
:104490000E94300CF5CF30E020E044E150E06CEDBC
:1044A00070E08AE090E00E94941B30E020E044E15C
:1044B00050E062ED70E084E190E00E94881B68EEBD
:1044C00073E080E090E00E94300C2FEF3FEF44E17A
:1044D00050E06CED70E082E291E00E94941B2FEFBF
:1044E0003FEF44E150E062ED70E08CE291E00E9429
:1044F000881B0E948910811107C064E670E080E08B
:1045000090E00E94300CF5CF00918804109189044E
:1045100060908A0470908B0430E020E044E150E029
:104520006CED70E082E291E00E94941B30E020E0AC
:1045300044E150E062ED70E08CE291E00E94881B63
:1045400008191909C7018A199B09800F911F68E38F
:1045500070E00E94F7349B01709325016093240161
:10456000CC19DD09C301841995098C0F9D1F68E2E0
:1045700070E00E94F734709321016093200190E075
:1045800080E0AC01421B530B9A01220F331FA20E95
:10459000B31EB0922701A0922601861B970B880FAD
:1045A000991FC80ED91ED0922301C092220164E245
:1045B00071E080E290E00E94861360E271E084E2A4
:1045C00090E00E94861366E271E088E290E00E942B
:1045D000861362E271E08CE290E00E94861390E024
:1045E00080E0DF91CF911F910F91FF90EF90DF90CE
:1045F000CF90BF90AF909F908F907F906F905F9083
:104600004F900C94781BCF92DF92EF92FF926B0148
:104610007C010E94BC1A80E8C81686E9D80688E9A1
:10462000E806F10454F084E591E00E942614FF901E
:10463000EF90DF90CF900C94E01380E591E0F5CF00
:104640006F927F928F929F92AF92BF92CF92DF92A2
:10465000EF92FF920F931F93CF93DF93CDB7DEB707
:104660002C970FB6F894DEBF0FBECDBF90E080E070
:104670000E94781B0EE41EE03EE5632E3DE0732EA3
:104680004CE050E0B301CE0101960E945D34CE01B2
:1046900001960E94001F6CE0660E711C061517053E
:1046A00079F7E0EAF3E08EE1DF011D928A95E9F700
:1046B000912C812C0E9419150E9489108823D1F316
:1046C0000E94FB070EE51DE04CE050E0B801CE0172
:1046D00001960E945D3489819A81209188043091ED
:1046E0008904821793070CF08FC04D815E81840F7F
:1046F000951F281739070CF087C08B819C8120916A
:104700008A0430918B04821793070CF07DC04F818F
:104710005885840F951F281739070CF075C0E98458
:10472000FA8464EE71E0C7010E949A35892B09F082
:1047300055C080EA93E00E9436349B01AC01DC0155
:10474000CB0185569109A109B1098C3C9447A1057B
:10475000B10520F5A8EEB3E00E946A3560937F04AE
:104760007093800480938104909382040E94BC1A09
:1047700020911F0180917F0490918004A091810479
:10478000B0918204203109F58093150190931601B0
:10479000A0931701B09318010E94E0130E943420E7
:1047A0002C960FB6F894DEBF0FBECDBFDF91CF9130
:1047B0001F910F91FF90EF90DF90CF90BF90AF903F
:1047C0009F908F907F906F900895809310019093A9
:1047D0001101A0931201B0931301DECF67EE71E0D7
:1047E000C7010E949A35892B09F043C0F401E056B5
:1047F000FC4F10828114910419F0F1E08F1A910896
:10480000F401E056FC4F1082045F1F4F0615170598
:1048100009F05ACF60EA73E08EE594E00E94A33578
:104820006EEE71E08EE594E00E948F358FE0A82E49
:10483000B12C9FE0C92ED12CEE24EA94FE2C0EE17F
:1048400010E020E431E042E050E070E060E08EE50E
:1048500094E00E947F1C6CE271E080E090E00E9496
:10486000300C0E948910882309F424CF0E94191566
:10487000F8CF6AEE71E0C7010E949A35892B09F4DE
:104880008DCFD7012C9180ED820F8A3008F0BCCFFC
:10489000C4010196F401E056FC4F2083FC01E05670
:1048A000FC4F10824C01B0CF0F931F93CF93DF9337
:1048B0008C01FC01C085D18568E571E0CE010E94C4
:1048C0009A35892B39F4C801DF91CF911F910F914F
:1048D0000C94102064E072E0CE010E94BA35892B5E
:1048E000B9F043E150E063EF71E089EF94E00E949A
:1048F000320880917D04811108C084E591E0DF9148
:10490000CF911F910F910C94261480E591E0F7CF81
:1049100060E871E0CE010E949A35892B11F58091F3
:10492000860490918704892BB9F481E090E09093FC
:1049300087048093860460917F0470918004809145
:104940008104909182040E94BC1AC801DF91CF912A
:104950001F910F910C94001F1092870410928604EF
:10496000EACF6CE771E0CE010E949A35892B39F4C9
:10497000C801DF91CF911F910F910C94D71F6FE564
:1049800071E0CE010E949A35892B91F480911F012C
:10499000803131F4DF91CF911F910F910C9420233E
:1049A00080E190E0DF91CF911F910F910C94421420
:1049B0006DE671E0CE010E949A35892B39F4809121
:1049C0001F01843139F384E190E0ECCF67E072E0BD
:1049D000CE010E949A35892B09F047C080E180936F
:1049E0001F018091150190911601A0911701B091BE
:1049F00018018093100190931101A0931201B093BC
:104A000013018091BE039091BF03892B41F08CE785
:104A100091E00E9468128CED94E00E94D71F809173
:104A20008304882341F088E591E00E9468128CEDB0
:104A300094E00E941020C8ECD3E01CE0FE01212F7E
:104A400011922A95E9F780E190E00E94381AFE0160
:104A500011921A95E9F784E190E00E94381ADF91EB
:104A6000CF911F910F910C94E0136BE072E0CE0197
:104A70000E949A35892B51F460E477E78BE190E04E
:104A8000DF91CF911F910F910C9403236FE072E09F
:104A9000CE010E949A35892B29F460EE77E685E3F2
:104AA00090E0EECF6CE072E0CE010E949A35892B47
:104AB00029F460ED7BE180E590E0E2CF62E172E015
:104AC000CE010E949A35892B29F460EC7FEC8AE6AE
:104AD00090E0D6CF65E172E0CE010E949A35892B35
:104AE00029F460E876E988E990E0CACF68E172E0ED
:104AF000CE010E949A35892B29F460E87FE985ED83
:104B000090E0BECF6BE172E0CE010E949A35892B16
:104B100029F460E878EA82E191E0B2CF6EE172E0D8
:104B2000CE010E949A35892B29F460E47FE680E467
:104B300091E0A6CF61E272E0CE010E949A35892B06
:104B400029F460E07BE68AE791E09ACF64E272E0C4
:104B5000CE010E949A35892B29F460E07AE08FE932
:104B600091E08ECF67E272E0CE010E949A35892BE8
:104B700029F460E07FE38BEA91E082CF63E871E0A3
:104B8000CE010E949A35892B59F480917E048111BF
:104B900004C081E080937E04D8CE10927E04D5CEEE
:104BA0006AE272E0CE010E949A35892B09F049C071
:104BB0006091190170911A0180EB94E00E94F73422
:104BC000EB018EE292E00E941A2B00EB14E081E1EF
:104BD0000E946809019781F40E946A0E892B61F492
:104BE0000E941B1218161906CCF0892B81F3C330D2
:104BF000D1056CF3219716C069E171E08CE190E07A
:104C00000E9486138EE591E00E941A2B84EF91E0BA
:104C1000DF91CF911F910F910C94D717C83CD1050C
:104C2000B4F62196C801BE010E94F73470931A01B0
:104C3000609319010E94031A84E190E00E94D71743
:104C4000C6CF61E472E0CE010E949A35892B09F04B
:104C50005FC085E492E00E941A2B81E10E946809FE
:104C60000197E1F40E946A0E892BC1F40E941B1285
:104C70001816190624F1892B81F380910C0190916B
:104C80000D01A0910E01B0910F0185369105A1058E
:104C9000B10518F30A97A109B10923C086E00E9463
:104CA000BF096CE071E088E190E00E94AD138EE5F1
:104CB00091E0DF91CF911F910F910C941A2B80916D
:104CC0000C0190910D01A0910E01B0910F01803D5A
:104CD000F7E09F07A105B10508F0BFCF0A96A11D17
:104CE000B11D80930C0190930D01A0930E01B09320
:104CF0000F0180910C0190910D010E941C0A0E94ED
:104D0000D3190E94191584E190E00E94D717A5CF0E
:104D1000DF91CF911F910F910895CF9369E572E0D4
:104D20008CE692E00E94001C88EC97EAA8EAB0E0CA
:104D300080934B0490934C04A0934D04B0934E0485
:104D400048EC57EA68EA70E080E00E948E0E6091BD
:104D50004B0470914C0480914D0490914E040E943C
:104D60008920C2E30E946A0E892BE9F50E941B127A
:104D70000097C1F3C89F9001C99F300D1124C9014C
:104D8000330FAA0BBB0B40914B0450914C04609124
:104D90004D0470914E04481B590B6A0B7B0B4093DA
:104DA0004B0450934C0460934D0470934E0480E088
:104DB0000E948E0E60917F04709180048091810426
:104DC000909182040E94BC1A60914B0470914C0433
:104DD00080914D0490914E040E94892084E690E0D9
:104DE0000E94D717BFCF6BE474E088E090E00E9488
:104DF000AD1340914B0450914C0460914D0470915F
:104E00004E0480E00E948E0E60917F0470918004B9
:104E100080918104909182040E94BC1A0E94B51A6C
:104E200010927C04CF9108958F929F92AF92BF927F
:104E3000CF92DF92EF92FF920F931F93CF93DF9366
:104E400000D0CDB7DEB764E772E086E892E00E945A
:104E5000001C60917F047091800480918104909186
:104E6000820458EE852E53E0952EA12CB12CA5017D
:104E700094010E940B35A8EEB3E00E946A3560935E
:104E80007F047093800480938104909382040E9435
:104E9000BC1A0FE010E02FEF37E042E350E064E18E
:104EA00070E084E992E00E9459192FEF37E04BE45B
:104EB00050E064E170E086EA92E00E945919609146
:104EC0007F04709180048091810490918204A501F7
:104ED00094010E940B35CA01B9012AE040EA53E06F
:104EE0000E9471346EEE71E080EA93E00E948F358B
:104EF0002FEF37E044E650E064E170E080EA93E0B1
:104F00000E9459192FEF37E044EB50E064E170E064
:104F100089EB92E00E9459190E946A0E892B29F0B0
:104F200084E690E00E94D717F7CF84E690E00E94D5
:104F3000D71710924F0410925004109251041092FF
:104F400052044BE6842E43E0942E0E946A0E892B75
:104F500009F07BC00E941B120097B9F3889DA00145
:104F6000899D500D989D500D1124052E000C660B47
:104F7000770B80914F0490915004A0915104B0910F
:104F80005204840F951FA61FB71F80934F04909360
:104F90005004A0935104B093520440914B0450919B
:104FA0004C0460914D0470914E0480E00E948E0E7E
:104FB00080914F0490915004A0915104B0915204FB
:104FC00080549F48A84DBB4C8093070190930801E3
:104FD000A0930901B0930A0140914B0450914C04F5
:104FE00060914D0470914E0480E00E948E0E60919D
:104FF0007F047091800480918104909182040E94CA
:10500000BC1A60914F0470915004809151049091AA
:1050100052042AE04EE554E00E947134AA24AA9476
:10502000BA2C2FE0C22ED12CEE24EA9437E0F32ED6
:105030000AE110E024E630E04CE850E064E670E07D
:105040008EE594E00E947F1C80CF8FE4882E84E060
:10505000982E10E000E01A830983F40161914F015A
:10506000CE0101960E946D130F5F1F4F0430110592
:1050700091F70E94440F80914F0490915004A091A9
:105080005104B091520480549F48A84DBB4C80936A
:10509000070190930801A0930901B0930A01409180
:1050A0004B0450914C0460914D0470914E0480E08B
:1050B0000E948E0E60917F04709180048091810423
:1050C000909182040E94BC1A0E946A0E892B29F0DA
:1050D00082E390E00E94D717F7CF84E690E00E9429
:1050E000D7170F900F90DF91CF911F910F91FF90E5
:1050F000EF90DF90CF90BF90AF909F908F900895EA
:105100001F920F920FB60F9211242F933F934F933C
:105110005F936F937F938F939F93AF93BF93EF931F
:10512000FF938091ED049091EE04A091EF04B09173
:10513000F004892B8A2B8B2BD1F19091E804E0911C
:10514000E904F091EA048081892780838091ED044D
:105150009091EE04A091EF04B091F0041816190696
:105160001A061B069CF48091ED049091EE04A09128
:10517000EF04B091F0040197A109B1098093ED0407
:105180009093EE04A093EF04B093F004FF91EF919D
:10519000BF91AF919F918F917F916F915F914F914F
:1051A0003F912F910F900FBE0F901F9018958091F7
:1051B00028010E94BF09EACF1F920F920FB60F92EB
:1051C00011242F933F934F935F936F937F938F930C
:1051D0009F93AF93BF93EF93FF9389EF94E00E9467
:1051E000B008FF91EF91BF91AF919F918F917F9107
:1051F0006F915F914F913F912F910F900FBE0F9044
:105200001F9018951F920F920FB60F9211242F9393
:105210008F939F93EF93FF93E0910905F0910A0517
:105220008081E0910F05F091100582FD1BC09081F7
:10523000809112058F5F8F7320911305821741F0C3
:10524000E0911205F0E0E750FB4F958F8093120537
:10525000FF91EF919F918F912F910F900FBE0F9023
:105260001F9018958081F4CF1F920F920FB60F9266
:1052700011242F933F938F939F93AF93BF9380916C
:105280003F0490914004A0914104B09142043091B8
:105290003E0423E0230F2D3758F50196A11DB11DC3
:1052A00020933E0480933F0490934004A0934104D4
:1052B000B09342048091430490914404A09145042A
:1052C000B09146040196A11DB11D809343049093B3
:1052D0004404A0934504B0934604BF91AF919F91BD
:1052E0008F913F912F910F900FBE0F901F901895A7
:1052F00026E8230F0296A11DB11DD2CF1F920F9257
:105300000FB60F9211242F933F934F935F936F9398
:105310007F938F939F93AF93BF93EF93FF9380916E
:10532000B900887F803609F44AC0F0F5883209F464
:10533000A7C018F5803109F49BC0B8F4882309F49C
:10534000F9C0883009F494C0FF91EF91BF91AF91FB
:105350009F918F917F916F915F914F913F912F918D
:105360000F900FBE0F901F901895883109F488C0D8
:10537000803251F78093B00414C0803409F49DC08A
:1053800040F48033B9F38833F9F68093B00485ECA8
:10539000B0C0803509F485C0883509F496C08834DA
:1053A00099F60E94D012D0CF883909F48CC038F514
:1053B000883729F050F4883611F0803729F683E0D9
:1053C0008093B20410923D0457C0883809F47BC022
:1053D000803919F0803809F0B7CF80913D048032D0
:1053E00008F071C0E0913D0481E08E0F80933D0490
:1053F0008091BB00F0E0E35EFB4F80833DC0803BCB
:1054000039F0E0F4803A09F479C0883A09F09CCF89
:1054100084E08093B20410921A0410921904E0916F
:105420001704F091180409958091190481110FC097
:1054300081E0809319041092F70309C0803C09F4BD
:10544000A6CF883C09F4A3CF883B09F07DCFE0913B
:105450001A0481E08E0F80931A04F0E0E950FC4FAB
:1054600080818093BB0090911A048091190429C017
:1054700080918D048093BB0085EC8093BC0064CF49
:105480009091AF048091AE04981758F5E091AF0465
:1054900081E08E0F8093AF04F0E0E257FB4F8081F4
:1054A000E9CFE091AF0481E08E0F8093AF0480914B
:1054B000BB00F0E0E257FB4F80839091AF048091F6
:1054C000AE049817C8F285E8D8CFE091AF0481E028
:1054D0008E0F8093AF048091BB00F0E0E257FB4F4A
:1054E00080838091B10481115CCF81E080938C0432
:1054F00084EA8093BC001092B20426CF85EC80939E
:10550000BC001092B20480913D04803230F4E091EE
:105510003D04F0E0E35EFB4F108260913D0470E0DB
:10552000E0911B04F0911C048DE194E00995109228
:105530003D040ACF1092B00434CF1F920F920FB6E1
:105540000F9211248F93EF93FF93EAE4F3E08181AC
:1055500082838081818380914803808310924903F4
:1055600010924803FF91EF918F910F900FBE0F9013
:105570001F9018951F920F920FB60F9211242F9320
:105580003F934F935F936F937F938F939F93AF93CB
:10559000BF93EF93FF930E94581290915304981772
:1055A00051F1911112C08230B9F59091540491508B
:1055B00090935404209148033091490321503109BC
:1055C000309349032093480314C0923029F4833068
:1055D00061F381110EC022C0933029F4813029F388
:1055E000823039F41BC0913021F48823F1F28330EA
:1055F000A9F080935304FF91EF91BF91AF919F91D8
:105600008F917F916F915F914F913F912F910F906B
:105610000FBE0F901F901895813059F79091540448
:105620009F5F9093540420914803309149032F5F6A
:105630003F4FC6CF0F931F93CF93DF93EC010FE043
:1056400010E029E630E040E451E060E570E090E0F1
:1056500080E00E94E0182FEF3FEF40E550E070E05F
:1056600060E0CE010E945919DF91CF911F910F91F7
:105670000895E9EFF4E01382128288EE93E0A0E04F
:10568000B0E084839583A683B78320E331E0318340
:10569000208325EC30E03587248724EC30E0378701
:1056A000268720EC30E0318B208B21EC30E0338BEF
:1056B000228B22EC30E0358B248B26EC30E0378BCC
:1056C000268B118E128E138E148EE6E9F5E013826E
:1056D000128284839583A683B78382E491E09183C9
:1056E00080830895CF93DF93CDB7DEB72C970FB6A5
:1056F000F894DEBF0FBECDBF789484B5826084BDC0
:1057000084B5816084BD85B5826085BD85B58160C5
:1057100085BD80916E00816080936E001092810043
:1057200080918100826080938100809181008160FE
:1057300080938100809180008160809380008091BF
:10574000B10084608093B1008091B000816080934B
:10575000B00080917A00846080937A0080917A0012
:10576000826080937A0080917A00816080937A00D1
:1057700080917A00806880937A001092C100E09155
:105780000905F0910A0582E08083E0910505F0911A
:1057900006051082E0910705F091080583E38083F8
:1057A00010921105E0910D05F0910E0586E08083C1
:1057B000E0910B05F0910C05808180618083E09180
:1057C0000B05F0910C05808188608083E0910B05CA
:1057D000F0910C05808180688083E0910B05F09149
:1057E0000C0580818F7D808389EF94E00E941F09E2
:1057F0001FB7F89480914704811127C0E5E9FFE0C5
:105800008491E7E7FFE09491E82FF0E0EE0FFF1FAF
:10581000E459F14FA591B491EC91E92321F461E0B1
:105820008AE00E94910961E08AE00E94EB098CB550
:1058300080618CBD8CB580648CBD61E08DE00E9480
:10584000EB0961E08BE00E94EB09809147048F5FD8
:10585000809347041FBF8CB58C7F8CBD8DB58E7F28
:105860008DBD8CB58F7D8CBD8CB5837F8CBD86E75F
:105870009EE0909349048093480461E08AE00E948E
:10588000EB0961E089E00E94EB0960E08AE00E9498
:1058900091098BEC0E943D1089E30E942B108CE251
:1058A0000E942B1080E00E942B1084E30E942B109A
:1058B00082E00E942B108FEC0E943D1080E00E943D
:1058C0002B1081EC0E942B1080E30E942B1088EE9D
:1058D0000E943D1085E80E942B1080E00E942B1052
:1058E00088E70E942B108AEE0E943D1080E00E9403
:1058F0002B1080E00E942B108DEE0E943D1084E65C
:105900000E942B1083E00E942B1082E10E942B103A
:1059100081E80E942B1087EF0E943D1080E20E94D8
:105920002B1080EC0E943D1083E20E942B1081EC32
:105930000E943D1080E10E942B1085EC0E943D10DA
:105940008EE30E942B1088E20E942B1087EC0E94AD
:105950003D1086E80E942B1086E30E943D1088E2ED
:105960000E942B108AE30E943D1085E50E942B10B7
:1059700081EB0E943D1080E00E942B1088E10E9484
:105980002B1086EB0E943D1088E00E942B1082E8CD
:105990000E942B1087E20E942B1081E10E943D1093
:1059A00068E770E080E090E00E94300C89E20E949D
:1059B0003D108CE20E943D1061E08AE00E94910956
:1059C00061E088E00E94EB0961E088E00E949109B3
:1059D00064E271E080E290E00E94961260E271E081
:1059E00084E290E00E94961266E271E088E290E024
:1059F0000E94961262E271E08CE290E00E949612A0
:105A000090E080E00E94E13480934F0481E090E0D8
:105A10000E94E1348093500482E090E00E94E134DF
:105A20008093510483E090E00E94E134809352041B
:105A30006BE474E088E090E00E94AA1265E171E0F6
:105A400080E190E00E94AA1260E171E084E190E0C0
:105A50000E94AA126CE071E088E190E00E94AA1214
:105A600069E171E08CE190E00E9496126BE171E0D7
:105A700080E390E00E94961280914B0490914C0438
:105A8000A0914D04B0914E0480549449A84AB109A4
:105A9000813E9E42A105B10560F080EE93EAA8EA3E
:105AA000B0E080934B0490934C04A0934D04B093CA
:105AB0004E048091150190911601A0911701B091AB
:105AC0001801805E9746A543B109813E964AA04ED3
:105AD000B14060F080EB99E1ADE6B0E08093150154
